{
  "address": "0xe7f1725E7734CE288F8367e1Bb143E90bb3F0512",
  "abi": [
    {
      "inputs": [
        {
          "internalType": "contract IERC20",
          "name": "token_",
          "type": "address"
        }
      ],
      "stateMutability": "nonpayable",
      "type": "constructor"
    },
    {
      "inputs": [],
      "name": "MAX_REWARD",
      "outputs": [
        {
          "internalType": "uint256",
          "name": "",
          "type": "uint256"
        }
      ],
      "stateMutability": "view",
      "type": "function"
    },
    {
      "inputs": [],
      "name": "bank",
      "outputs": [
        {
          "internalType": "address",
          "name": "",
          "type": "address"
        }
      ],
      "stateMutability": "view",
      "type": "function"
    },
    {
      "inputs": [
        {
          "internalType": "address",
          "name": "user",
          "type": "address"
        }
      ],
      "name": "getReward",
      "outputs": [
        {
          "internalType": "uint256",
          "name": "",
          "type": "uint256"
        }
      ],
      "stateMutability": "view",
      "type": "function"
    },
    {
      "inputs": [],
      "name": "harvest",
      "outputs": [],
      "stateMutability": "nonpayable",
      "type": "function"
    },
    {
      "inputs": [],
      "name": "rate",
      "outputs": [
        {
          "internalType": "uint256",
          "name": "",
          "type": "uint256"
        }
      ],
      "stateMutability": "view",
      "type": "function"
    },
    {
      "inputs": [
        {
          "internalType": "uint256",
          "name": "amount",
          "type": "uint256"
        }
      ],
      "name": "stake",
      "outputs": [],
      "stateMutability": "nonpayable",
      "type": "function"
    },
    {
      "inputs": [
        {
          "internalType": "address",
          "name": "",
          "type": "address"
        }
      ],
      "name": "stakes",
      "outputs": [
        {
          "internalType": "uint256",
          "name": "startTimestamp",
          "type": "uint256"
        },
        {
          "internalType": "uint256",
          "name": "amount",
          "type": "uint256"
        },
        {
          "internalType": "uint256",
          "name": "reward",
          "type": "uint256"
        }
      ],
      "stateMutability": "view",
      "type": "function"
    },
    {
      "inputs": [],
      "name": "token",
      "outputs": [
        {
          "internalType": "contract IERC20",
          "name": "",
          "type": "address"
        }
      ],
      "stateMutability": "view",
      "type": "function"
    },
    {
      "inputs": [],
      "name": "unstake",
      "outputs": [],
      "stateMutability": "nonpayable",
      "type": "function"
    }
  ],
  "transactionHash": "0xc39af85dfeb10395a07b15ccc6cf89c8fbb129a04db056b562215dfde4dab3c4",
  "args": [
    "0x5FbDB2315678afecb367f032d93F642f64180aa3"
  ],
  "numDeployments": 1,
  "solcInputHash": "e9c343f0b42f476c2197e28bf664dc11",
  "bytecode": "0x6080604052600f600255683635c9adc5dea0000060035534801561002257600080fd5b50604051610a40380380610a408339810160408190526100419161006f565b600180546001600160a01b039092166001600160a01b0319928316179055600080549091163317905561009f565b60006020828403121561008157600080fd5b81516001600160a01b038116811461009857600080fd5b9392505050565b610992806100ae6000396000f3fe608060405234801561001057600080fd5b50600436106100935760003560e01c80634641257d116100665780634641257d1461011157806376cdb03b14610119578063a694fc3a14610144578063c00007b014610157578063fc0c546a1461016a57600080fd5b80630e1505e01461009857806316934fc4146100b45780632c4e722e146100fe5780632def662014610107575b600080fd5b6100a160035481565b6040519081526020015b60405180910390f35b6100e36100c23660046107de565b60046020526000908152604090208054600182015460029092015490919083565b604080519384526020840192909252908201526060016100ab565b6100a160025481565b61010f61017d565b005b61010f6101fd565b60005461012c906001600160a01b031681565b6040516001600160a01b0390911681526020016100ab565b61010f610152366004610807565b61029d565b6100a16101653660046107de565b61040b565b60015461012c906001600160a01b031681565b60006101883361040b565b1115610196576101966101fd565b336000818152600460208181526040808420600180820180548451606081018652888152808701898152958101898152988a9052969095529451825591519093559251600290920191909155905490916101fa916001600160a01b031690836104e3565b50565b60006102083361040b565b90506000811161025f5760405162461bcd60e51b815260206004820152601860248201527f596f7520646f6e74206861766520616e7920726577617264000000000000000060448201526064015b60405180910390fd5b3360009081526004602052604081206002018054839290610281908490610836565b90915550506001546101fa906001600160a01b031633836104e3565b33600090815260046020526040902054156102fa5760405162461bcd60e51b815260206004820152601a60248201527f596f7520686176652068616420616c7265616479207374616b650000000000006044820152606401610256565b6003546001546040516370a0823160e01b81523060048201526001600160a01b03909116906370a0823190602401602060405180830381865afa158015610345573d6000803e3d6000fd5b505050506040513d601f19601f82011682018060405250810190610369919061084e565b116103b65760405162461bcd60e51b815260206004820152601d60248201527f4e6f7420656e6f75676820746f6b656e73206f6e20636f6e74726163740000006044820152606401610256565b6001546103ce906001600160a01b031633308461054b565b6040805160608101825242815260208082019384526000828401818152338252600490925292909220905181559151600183015551600290910155565b6001600160a01b03811660009081526004602052604081205461043057506000919050565b6001600160a01b038216600090815260046020526040812054600a906104569042610867565b610460919061087e565b6001600160a01b0384166000908152600460205260408120600101546002549293509091606491906104939085906108a0565b61049d91906108a0565b6104a7919061087e565b336000908152600460205260409020600201546003549192509082116104cd57816104d1565b6003545b6104db9190610867565b949350505050565b6040516001600160a01b03831660248201526044810182905261054690849063a9059cbb60e01b906064015b60408051601f198184030181529190526020810180516001600160e01b03166001600160e01b031990931692909217909152610589565b505050565b6040516001600160a01b03808516602483015283166044820152606481018290526105839085906323b872dd60e01b9060840161050f565b50505050565b60006105de826040518060400160405280602081526020017f5361666545524332303a206c6f772d6c6576656c2063616c6c206661696c6564815250856001600160a01b031661065b9092919063ffffffff16565b80519091501561054657808060200190518101906105fc91906108bf565b6105465760405162461bcd60e51b815260206004820152602a60248201527f5361666545524332303a204552433230206f7065726174696f6e20646964206e6044820152691bdd081cdd58d8d9595960b21b6064820152608401610256565b606061066a8484600085610674565b90505b9392505050565b6060824710156106d55760405162461bcd60e51b815260206004820152602660248201527f416464726573733a20696e73756666696369656e742062616c616e636520666f6044820152651c8818d85b1b60d21b6064820152608401610256565b6001600160a01b0385163b61072c5760405162461bcd60e51b815260206004820152601d60248201527f416464726573733a2063616c6c20746f206e6f6e2d636f6e74726163740000006044820152606401610256565b600080866001600160a01b03168587604051610748919061090d565b60006040518083038185875af1925050503d8060008114610785576040519150601f19603f3d011682016040523d82523d6000602084013e61078a565b606091505b509150915061079a8282866107a5565b979650505050505050565b606083156107b457508161066d565b8251156107c45782518084602001fd5b8160405162461bcd60e51b81526004016102569190610929565b6000602082840312156107f057600080fd5b81356001600160a01b038116811461066d57600080fd5b60006020828403121561081957600080fd5b5035919050565b634e487b7160e01b600052601160045260246000fd5b6000821982111561084957610849610820565b500190565b60006020828403121561086057600080fd5b5051919050565b60008282101561087957610879610820565b500390565b60008261089b57634e487b7160e01b600052601260045260246000fd5b500490565b60008160001904831182151516156108ba576108ba610820565b500290565b6000602082840312156108d157600080fd5b8151801515811461066d57600080fd5b60005b838110156108fc5781810151838201526020016108e4565b838111156105835750506000910152565b6000825161091f8184602087016108e1565b9190910192915050565b60208152600082518060208401526109488160408501602087016108e1565b601f01601f1916919091016040019291505056fea2646970667358221220020827005aac1e89e6ccde612c4cf9aa8e362878cc5d027a1e7afd515af8216164736f6c634300080b0033",
  "devdoc": {
    "kind": "dev",
    "methods": {},
    "version": 1
  },
  "userdoc": {
    "kind": "user",
    "methods": {},
    "version": 1
  },
  "storageLayout": {
    "storage": [
      {
        "astId": 1290,
        "contract": "contracts/Staking.sol:Staking",
        "label": "bank",
        "offset": 0,
        "slot": "0",
        "type": "t_address"
      },
      {
        "astId": 1293,
        "contract": "contracts/Staking.sol:Staking",
        "label": "token",
        "offset": 0,
        "slot": "1",
        "type": "t_contract(IERC20)663"
      },
      {
        "astId": 1296,
        "contract": "contracts/Staking.sol:Staking",
        "label": "rate",
        "offset": 0,
        "slot": "2",
        "type": "t_uint256"
      },
      {
        "astId": 1299,
        "contract": "contracts/Staking.sol:Staking",
        "label": "MAX_REWARD",
        "offset": 0,
        "slot": "3",
        "type": "t_uint256"
      },
      {
        "astId": 1304,
        "contract": "contracts/Staking.sol:Staking",
        "label": "stakes",
        "offset": 0,
        "slot": "4",
        "type": "t_mapping(t_address,t_struct(Stake)1288_storage)"
      }
    ],
    "types": {
      "t_address": {
        "encoding": "inplace",
        "label": "address",
        "numberOfBytes": "20"
      },
      "t_contract(IERC20)663": {
        "encoding": "inplace",
        "label": "contract IERC20",
        "numberOfBytes": "20"
      },
      "t_mapping(t_address,t_struct(Stake)1288_storage)": {
        "encoding": "mapping",
        "key": "t_address",
        "label": "mapping(address => struct Staking.Stake)",
        "numberOfBytes": "32",
        "value": "t_struct(Stake)1288_storage"
      },
      "t_struct(Stake)1288_storage": {
        "encoding": "inplace",
        "label": "struct Staking.Stake",
        "members": [
          {
            "astId": 1283,
            "contract": "contracts/Staking.sol:Staking",
            "label": "startTimestamp",
            "offset": 0,
            "slot": "0",
            "type": "t_uint256"
          },
          {
            "astId": 1285,
            "contract": "contracts/Staking.sol:Staking",
            "label": "amount",
            "offset": 0,
            "slot": "1",
            "type": "t_uint256"
          },
          {
            "astId": 1287,
            "contract": "contracts/Staking.sol:Staking",
            "label": "reward",
            "offset": 0,
            "slot": "2",
            "type": "t_uint256"
          }
        ],
        "numberOfBytes": "96"
      },
      "t_uint256": {
        "encoding": "inplace",
        "label": "uint256",
        "numberOfBytes": "32"
      }
    }
  }
}